:0400000007EF00F016
:10000800468209ED00F01FEF04F00600FACF09F070
:10001800FBCF0AF0E9CF0BF0EACF0CF0E1CF0DF0FF
:10002800E2CF0EF0D9CF0FF0DACF10F0F3CF11F006
:10003800F4CF12F0F6CF13F0F7CF14F0F8CF15F095
:10004800F5CF16F09EA28CD03F4A402A3FC001F05F
:1000580040C002F0000E046E500E036EE7EC03F091
:1000680001500210D8A430D094A402D0949401D0A6
:100078009484000E00018A6F010E896F000E2A6EAB
:10008800040E296E80A004D0000E2A6E000E296E80
:1000980080A204D0000E2A6E010E296E80A404D01E
:1000A800000E2A6E020E296E80A604D0000E2A6E5B
:1000B800030E296E040E29182A10D8A405D0000EA4
:1000C80000018A6F000E896F0001855100018611B9
:1000D800D8B42BD0000E0001866F000E856F3FC08C
:1000E80001F040C002F0000E046EB40E036EE7EC9F
:1000F80003F001C017F002C018F017C001F018C0D3
:1001080002F0000E046E180E036E2CEC03F00128AA
:10011800386E17C001F018C002F0000E046E180EF9
:10012800036EE7EC03F00150376E010E026E900E7D
:10013800016E27C003F028C004F02CEC03F03F50F8
:1001480001180DE140500218D8A409D0000E406EE5
:10015800000E3F6E000E0001886F010E876F9E92A1
:10016800F2A40BD064EC05F02DC0D6FF2EC0D7FF4B
:10017800000E2C6E010E2B6EF29416C0F5FF15C002
:10018800F8FF14C0F7FF13C0F6FF12C0F4FF11C048
:10019800F3FF10C0DAFF0FC0D9FF0EC0E2FF0DC099
:1001A800E1FF0CC0EAFF0BC0E9FF0AC0FBFF09C072
:1001B800FAFF469211006EEC03F0000E0001786F12
:1001C800000E776FE80E415C030E4258D8B05AEC27
:1001D80002F00001875100018811D8B44ED03B507D
:1001E8003D5CD8B004D03BC033F03B061AD03D503C
:1001F8003B5CD8B004D03BC033F03B2A12D03C5013
:100208003E5CD8B004D03CC034F03C060AD03E5026
:100218003C5CD8B004D03CC034F03C2A02D0ACECF2
:1002280003F03A503E5CD8B004D03AC032F03A06F7
:100238001AD03E503A5CD8B004D03AC032F03A2ACC
:1002480012D039503D5CD8B004D039C031F03906ED
:100258000AD03D50395CD8B004D039C031F0392AC1
:1002680002D0ACEC03F0000E0001886F000E876F1F
:10027800000E0001786F010E776F000189510001AF
:100288008A11D8B437D029502A10D8A407D03EC034
:1002980036F0010E3E6424D03E0622D029042A10EE
:1002A800D8A407D03DC035F0010E3D6419D03D06F5
:1002B80017D0030E29182A10D8A407D03EC036F04C
:1002C800070E3E600DD03E2A0BD0020E29182A10C8
:1002D800D8A406D03DC035F0180E3D6001D03D2AA7
:1002E800000E00018A6F000E896F000E0001786F02
:1002F800010E776F2B502C10D8A408EC02F03E505A
:100308003818D8A40DD03D503718D8A409D0000EFD
:100318000001866F010E856F140E4126000E4222E1
:100328000001775100017811D8B447D7A2EC01F049
:10033800000E0001786F000E776F3FD73628246EC5
:100348003550050DF350FB0F256E3550020F050D86
:10035800F3CF26F03604E9EC02F03428246E33504B
:10036800050DF350FB0F256E3350020F050DF3CF2B
:1003780026F03404E9EC02F03228246E3150050DE1
:10038800F350FB0F256E3150020F050DF3CF26F009
:100398003204E9EC02F03DC025F0260E266E3E50F0
:1003A800A6EC02F03BC025F02B0E266E3C50A6ECC6
:1003B80002F037C025F02A0E266E3850A6EC02F05F
:1003C80039C025F02B0E266E3A50A6EC02F0000E2E
:1003D8000001676F7BC068F07CC069F0000EA9EC73
:1003E80004F0100E0001676F79C068F07AC069F0F8
:1003F800000EA9EC04F0170E256E2750300F266E5C
:10040800000EA6EC02F012002B502C10D8B41200EB
:10041800000E246E3C0E256E4B0E266E000EE9EC87
:1004280002F00C0E256E41C019F042C01AF0000E01
:100438001C6E640E1B6E80EC04F01950300F266E93
:10044800000EA6EC02F00D0E256E000E1C6E0A0EB4
:100458001B6E41C019F042C01AF080EC04F019C0BC
:1004680020F01AC021F0000E236E0A0E226ED1EC85
:1004780004F02050300F266E000EA6EC02F00E0E8F
:10048800256E41C020F042C021F0000E236E0A0EF6
:10049800226ED1EC04F02050300F266E000EA6EC30
:1004A80002F0000E2C6E000E2B6E12009494070EB4
:1004B800246E000E256E7F0E266E000EE9EC02F00B
:1004C800030E0001676F7DC068F07EC069F0030EFF
:1004D800A9EC04F01F0E00016E6F710E00016D6F24
:1004E8001E0EE82EFED76D2FFCD76E2FFAD700F020
:1004F800070E246E000E256E7F0E266E010EE9ECA7
:1005080002F0000E426E000E416E030E00016F6F86
:100518000C0E0001706F030E0001716F030E0001D5
:10052800726F030E0001736F140E0001746F070ED3
:100538000001756F0C0E0001766F274A282A6EECB1
:1005480003F012000001606FE00E2624196E1A6A8B
:10055800FF0E1A22000E1C6E050E1B6E42EC05F0F3
:1005680019C063F01AC064F02550050DF3CF25F0CB
:10057800000E0001666F000E656F000166BF08D0AF
:100588000001665121E1050E0001655DD8B0120039
:10059800D90E00016325F66E7D0E6421F76E080002
:1005A800F5500001616F626B25C01EF061C01FF03D
:1005B8000001605152EC04F0252A0001634B642BC2
:1005C8000001654B662BD9D712000001636F63C029
:1005D80064F00001656B27D025C066F00001676BE9
:1005E8000BD066C01EF0000E1F6E0001645152EC65
:1005F80004F00001664B672B26500001606F616BA9
:10060800000166510001605D00016151800A00012E
:10061800626F00016751800A00016259D8B0E1D7C2
:100628000001644B652B24500001606F616B000171
:1006380064510001605D00016151800A0001626F30
:1006480000016551800A00016259D8A01200C4D780
:10065800000E066E04AE06D0036C041ED8B0042A41
:10066800010E066E02AE06D0016C021ED8B0022A38
:10067800010E061A000E086E000E076E03500410D5
:10068800D8B41CD0010E056E04D0D89003360436B9
:10069800052A04AEFAD7D890073608360350015C0D
:1006A80004500258D8A005D00350015E0450025AE5
:1006B8000780D89004320332052EEDD70650D8B4FF
:1006C80004D0076C081ED8B0082A07C001F008C07B
:1006D80002F012000F0EC16E000E806E000E836EC7
:1006E800000E816E9268000E956E000E936E9494C3
:1006F80055EC05F0070E246E000E256E7F0E266E53
:10070800000EE9EC02F0000E73EC05F0F28E9D820B
:10071800F28CCA82EF0ECB6EBD86BD84780EBE6E9B
:10072800BD9ABD98CA84D596D590D592D584D59AC8
:10073800D59CF294F28AF184D08EF28E2DC0D6FF29
:100748002EC0D7FFD58EA2EC01F008EC02F0120003
:100758009494070E246E000E256E7F0E266E000EF2
:10076800E9EC02F0030E0001676F7FC068F080C0FB
:1007780069F0030EA9EC04F01F0E00016E6F710EF4
:1007880000016D6F1E0EE82EFED76D2FFCD76E2F61
:10079800FAD700F0030E00016F6F0C0E0001706FA6
:1007A800030E0001716F030E0001726F030E00014A
:1007B800736F140E0001746F070E0001756F0C0E35
:1007C8000001766F1200000E066E02AE06D0016CB4
:1007D800021ED8B0022A010E066E04AE04D0036CC5
:1007E800041ED8B0042A03500410D8B418D0010E3F
:1007F800056E04D0D89003360436052A04AEFAD71D
:100808000350015C04500258D8A004D00350015E84
:100818000450025AD89004320332052EF1D70650FC
:10082800D8B404D0016C021ED8B0022A01C001F06D
:1008380002C002F01200360EF66E0B0EF76E000EB6
:10084800F86E00EE79F010EE0CF00900F5CFEEFF2F
:10085800E550E150FAE11E0EF66E0B0EF76E000E33
:10086800F86E00EE27F010EE18F00900F5CFEEFF55
:10087800E550E150FAE100EE85F0080EEE6AE80670
:10088800FDE100EE3FF0070EEE6AE806FDE1469056
:100898004692000EF86E0001DFEF00F0206E400E69
:1008A8001E6004D0000E226E010E03D0000E226ED0
:1008B800020E216E21C023F0205081EC05F01E505D
:1008C800F2EC04F023502AEC05F0000E936E23049A
:1008D800D8B48190020E2318D8B48192819681846D
:1008E80000F0818800F01FC083FF000E956E00F0B5
:1008F8008198818081821200000E1F6E000E1E6E8C
:100908001B501C10D8B41CD0010E1D6E04D0D890FA
:100918001B361C361D2A1CAEFAD7D8901E361F3639
:100928001B50195C1C501A58D8A005D01B50195ED2
:100938001C501A5A1E80D8901C321B321D2EEDD71F
:100948001EC019F01FC01AF0120000016A6F000ED5
:1009580000016C6F000E6B6F16D00001675100012B
:100968006B25256E68C0F6FF69C0F7FF0800F5CF54
:1009780026F000016A51A6EC02F00001684B692BD1
:1009880000016B4B6C2B68C0F6FF69C0F7FF0800CD
:10099800F5500A0AD8B41200E0D722502310D8B470
:1009A80018D0010E246E04D0D89022362336242A7B
:1009B80023AEFAD72250205C23502158D8A004D067
:1009C8002250205E2350215AD89023322232242EDE
:1009D800F1D720C020F021C021F012001D6E400E7A
:1009E8001D600CD0010E1B6E1D5040090FEC05F068
:1009F800020E1B6E400E0FEC05F01200010E1B6E6E
:100A08007F0E0FEC05F0020E1B6E1D50C00F400943
:100A18000FEC05F012001C6E1B502AEC05F0000EBE
:100A2800936E1B04D8B48190020E1B18D8B481921F
:100A38008196819400F0818800F01CC083FF000E2D
:100A4800956E00F081988180818212001A6E9568F7
:100A5800000E936E1A04D8B48190020E1A18D8B4F6
:100A680081928186819400F0818800F083CF19F00B
:100A7800819819BEF9D781808182120019501B0212
:100A8800F3CF1DF0F4CF1EF019501C02F3501E26B0
:100A98001A501B02F3501E261DC019F01EC01AF072
:100AA8001200818A010E1B6E3F0E0FEC05F0020E3C
:100AB8001B6E3F0E0FEC05F0000E73EC05F01200F4
:100AC800434A442A445004E10A0E435CD8A0120069
:100AD800000E446E000E436E414A422A12001D6EFB
:100AE800010E1B6E1D50C0090FEC05F0020E1B6EA7
:100AF8001D50C0090FEC05F012001D6E010E1B6E93
:100B08001D50B8090FEC05F0020E1B6E1D50B809F8
:100B18000FEC05F01200010004000100CAF30C07F5
:100B2800140303030C030C07140303030C03F37FE0
:0A0B3800DA7FE77FCD7FFD7FFB7FB2
:107DD80000000000000000005F000000070007002E
:107DE800147F147F14242A7F2A1223130864623E06
:107DF8007F4F4B4E00050300003E7B3F7B3E00411A
:107E0800221C00082A1C2A087E3B7F3B7E0050303B
:107E18000000080808080800303000002010080496
:107E2800023E5149453E00427F4000426151494669
:107E38002141454B311814127F1027454545393CDF
:107E48004A49493001710905033649494936064905
:107E580049291E0036360000005636000000081476
:107E68002241141414141441221408000201510967
:107E780006324979413E7E1111117E7F49494936C2
:107E88003E414141227F4141221C7F494949417F6E
:107E9800090901013E414151327F0808087F00412C
:107EA8007F41002040413F017F081422417F40402C
:107EB80040407F0204027F7F0408107F3E41414119
:107EC8003E7F090909063E4151215E7F091929466D
:107ED800464949493101017F01013F4040403F1F68
:107EE8002040201F7F2018207F6314081463030498
:107EF800780403615149454300007F414102040869
:107F0800102041417F00000402010204404040402B
:107F180040000102040020545454787F48444438F7
:107F28003844444420384444487F3854545418084A
:107F38007E090102081454543C7F08040478004464
:107F48007D40002040443D00007F10284400417FD0
:107F580040007C041804787C0804047838444444BD
:107F6800387C14141408081414187C7C08040408B9
:107F78004854545420043F4440203C4040207C1C3A
:107F88002040201C3C4030403C44281028440C50E1
:107F980050503C4464544C44000836410000007F73
:107FA8000000004136080008082A1C08081C2A0896
:107FB800080800AA0008003838380000000000004F
:107FC800000000000047414D45204F5645522021F2
:107FD8000A00484947482053434F52453A0A005936
:107FE8004F552057494E203C330A00524F4E4441CA
:087FF8003A0A0026002B0000EC
:020000040030CA
:0E000000210C3F1EFF8181FF0FC00FE00F405B
:00000001FF
