:020000040000FA
:1000000034EF02F00D0E106E000000000000000042
:1000100000000000000000000000000000000000E0
:1000200000000000000000000000000000000000D0
:1000300000000000000000000000000000000000C0
:1000400000000000000000000000000000000000B0
:06046000102ED2D512009F
:02046600000094
:08046800956A006A002A00C039
:1004700083FF02EC00F002EC00F002EC00F002EC72
:1004800000F002EC00F002EC00F002EC00F002ECF4
:1004900000F002EC00F002EC00F002EC00F002ECE4
:1004A00000F002EC00F002EC00F002EC00F002ECD4
:1004B00000F002EC00F002EC00F002EC00F002ECC4
:0E08100000F002EC00F002EC00F036EF02F017
:020000040030CA
:0100000021DE
:010001000CF2
:010002003FBE
:010003001EDE
:010005008179
:010006008178
:010008000FE8
:01000900C036
:01000A000FE6
:01000B00E014
:01000C000FE4
:01000D0040B2
:00000001FF
