:04000000BEEF3DF022
:107B1000F97F010E156E1BC016F01CC017F0060E83
:107B20004BEC3EF01200056E010E036E0550C009CD
:107B300013EC3EF0020E036E0550C00913EC3EF04C
:107B40001200056E010E036E0550B80913EC3EF0ED
:107B5000020E036E0550B80913EC3EF01200818A44
:107B6000010E036E3F0E13EC3EF0020E036E3F0E4D
:107B700013EC3EF0000E93EC3DF01200100EF66E8A
:107B80007B0EF76E000EF86E0900F5CF1BF00900B2
:107B9000F5CF1CF0000EF86E0001FAEF3DF0015039
:107BA0000302F3CF05F0F4CF06F001500402F350C6
:107BB000062602500302F350062605C001F006C057
:107BC00002F01200026E9568000E936E0204D8B4A3
:107BD0008190020E0218D8B481928186819400F0BF
:107BE000818800F083CF01F0819801BEF9D78180B0
:107BF00081821200000E836E000E816E000E956E63
:107C0000000E936EAFEC3DF0070E0C6E000E0D6E85
:107C10007F0E0E6E000E9AEC3EF0000E93EC3DF0DF
:107C200089EC3DF0FFD7046E0350E2EC3DF0000E0E
:107C3000936E0304D8B48190020E0318D8B48192D5
:107C40008196819400F0818800F004C083FF000ECB
:107C5000956E00F08198818081821200056E400E41
:107C600005600CD0010E036E0550400913EC3EF088
:107C7000020E036E400E13EC3EF01200010E036E76
:107C80007F0E13EC3EF0020E036E0550C00F40094C
:107C900013EC3EF01200186E000E1A6E000E196EF4
:107CA00011D0155019240C6E16C0F6FF17C0F7FF3F
:107CB0000800F5CF0DF01850C9EC3EF0164A172A0F
:107CC000194A1A2A16C0F6FF17C0F7FF0800F55028
:107CD0000A0AD8B41200E5D7086E400E066004D038
:107CE000000E0A6E010E03D0000E0A6E020E096E1F
:107CF00009C00BF00850A1EC3DF006502EEC3EF010
:107D00000B50E2EC3DF0000E936E0B04D8B4819062
:107D1000020E0B18D8B481928196818400F081887C
:107D200000F007C083FF000E956E00F081988180FF
:107D300081821200126E12C013F0146A1CD00DC0A2
:107D400015F0166A09D015C006F0000E076E135024
:107D50006CEC3EF0154A162A0E500F6E106A155044
:107D60000F5C1050800A116E1650800A1158D8B05E
:107D7000EAD7134A142A0C500F6E106A13500F5C86
:107D80001050800A116E1450800A1158D8A01200A9
:107D9000D6D7106EE00E0D24016E026AFF0E02228D
:107DA000000E046E050E036ECFEC3DF001C011F025
:107DB00002C012F00C50050DF3CF0CF0000E146E43
:107DC000000E136E14BE06D014501BE1050E135C9A
:107DD000D8B01200050E1124F66E7E0E1220F76E3A
:107DE0000800F5500E6E0F6A0CC006F00EC007F0CA
:107DF00010506CEC3EF00C2A114A122A134A142A35
:107E0000E1D7120000000000000000005F00000049
:107E100007000700147F147F14242A7F2A122313DB
:107E200008646236495522500005030000001C22F8
:107E300041000041221C003E7F4F4B0E7E3B7F3BAA
:107E40007E005030000008080808080030300000AC
:107E500020100804023E5149453E00427F40004246
:107E6000615149462141454B311814127F10274575
:107E70004545393C4A4949300171090503364949AC
:107E80004936064949291E0036360000005636009C
:107E90000000081422411414141414412214080080
:107EA0000201510906324979413E7E1111117E7F4E
:107EB000494949363E414141227F4141221C7F4987
:107EC0004949417F090901013E414151327F08087A
:107ED000087F00417F41002040413F017F0814227C
:107EE000417F404040407F0204027F7F0408107FB2
:107EF0003E4141413E7F090909063E4151215E7FD5
:107F000009192946464949493101017F01013F408C
:107F100040403F1F2040201F7F2018207F6314080F
:107F200014630304780403615149454300007F4111
:107F300041020408102041417F00000402010204B4
:107F40004040404040000102040020545454787FD7
:107F5000484444383844444420384444487F3854E2
:107F6000545418087E090102081454543C7F080434
:107F7000047800447D40002040443D00007F1028EC
:107F80004400417F40007C041804787C0804047895
:107F900038444444387C14141408081414187C7CA5
:107FA000080404084854545420043F4440203C40F2
:107FB00040207C1C2040201C3C4030403C44281089
:107FC00028440C5050503C4464544C440008364102
:107FD0000000007F0000004136080008082A1C0845
:107FE000081C2A08080800AA0008003838380000D1
:107FF0000000000000000000002B202A200A0000E2
:020000040030CA
:0E000000210C3F1EFF8181FF0FC00FE00F405B
:00000001FF
