:0400000075EF00F0A8
:06000800268277ED00F0F6
:100018002680D8CF13F0E8CF14F0E0CF15F0FACF50
:1000280016F0FBCF17F0E9CF18F0EACF19F0E1CFBF
:100038001AF0E2CF1BF0D9CF1CF0DACF1DF0F3CFC6
:100048001EF0F4CF1FF0F6CF20F0F7CF21F0F8CF55
:1000580022F0F5CF23F0F098020E126E040E116E06
:10006800BA0EE82EFED7112EFCD7122EFAD700D0E2
:10007800F0A212D02406D8A0250624C083FF020EC1
:10008800126E040E116EBA0EE82EFED7112EFCD792
:10009800122EFAD700D0F092F08823C0F5FF22C0C4
:1000A800F8FF21C0F7FF20C0F6FF1FC0F4FF1EC0F5
:1000B800F3FF1DC0DAFF1CC0D9FF1BC0E2FF1AC046
:1000C800E1FF19C0EAFF18C0E9FF17C0FBFF16C01F
:1000D800FAFF15C0E0FF14C0E8FF13C0D8FF269050
:1000E8001000E5EF00F00600FACF03F0FBCF04F0B4
:1000F800E9CF05F0EACF06F0E1CF07F0E2CF08F04C
:10010800D9CF09F0DACF0AF0F3CF0BF0F4CF0CF027
:10011800F6CF0DF0F7CF0EF0F8CF0FF0F5CF10F0C7
:10012800F096020E026E040E016EBA0EE82EFED78D
:10013800012EFCD7022EFAD700D0F0A011D0244A05
:10014800252A24C083FF020E026E040E016EBA0E29
:10015800E82EFED7012EFCD7022EFAD700D0F09059
:10016800F08610C0F5FF0FC0F8FF0EC0F7FF0DC0F6
:10017800F6FF0CC0F4FF0BC0F3FF0AC0DAFF09C09A
:10018800D9FF08C0E2FF07C0E1FF06C0EAFF05C0CB
:10019800E9FF04C0FBFF03C0FAFF26921100000E1E
:1001A800956E060E936E24C083FFD08EF086F0887D
:1001B800F090F092F08CF09EF28EF28CF19AF19819
:1001C800FFD7256A246A26902692000EF86E000151
:0401D800D3EF00F071
:107E0A0000000000000000005F00000007000700FB
:107E1A00147F147F14242A7F2A12231308646236DB
:107E2A00495522500005030000001C224100004170
:107E3A00221C00082A1C2A0808083E08080050309C
:107E4A000000080808080800303000002010080464
:107E5A00023E5149453E00427F4000426151494637
:107E6A002141454B311814127F1027454545393CAD
:107E7A004A494930017109050336494949360649D3
:107E8A0049291E0036360000005636000000081444
:107E9A002241141414141441221408000201510935
:107EAA0006324979413E7E1111117E7F4949493690
:107EBA003E414141227F4141221C7F494949417F3C
:107ECA00090901013E414151327F0808087F0041FA
:107EDA007F41002040413F017F081422417F4040FA
:107EEA0040407F0204027F7F0408107F3E414141E7
:107EFA003E7F090909063E4151215E7F091929463B
:107F0A00464949493101017F01013F4040403F1F35
:107F1A002040201F7F2018207F6314081463030465
:107F2A00780403615149454300007F414102040836
:107F3A00102041417F0000040201020440404040F9
:107F4A0040000102040020545454787F48444438C5
:107F5A003844444420384444487F38545454180818
:107F6A007E090102081454543C7F08040478004432
:107F7A007D40002040443D00007F10284400417F9E
:107F8A0040007C041804787C08040478384444448B
:107F9A00387C14141408081414187C7C0804040887
:107FAA004854545420043F4440203C4040207C1C08
:107FBA002040201C3C4030403C44281028440C50AF
:107FCA0050503C4464544C44000836410000007F41
:107FDA000000004136080008082A1C08081C2A0864
:107FEA00080800AA0008003838380000000000001D
:067FFA0000000000000081
:020000040030CA
:0E000000210C3F1EFF8181FF0FC00FE00F405B
:00000001FF
