:0400000007EF00F016
:100008003982AFED00F050EF03F00F0EC16E000E15
:10001800806E000E836E000E816E9268000E956EE3
:10002800000E936EF2EC03F0070E00016B6F000EEA
:1000380000016C6F7F0E00016D6F000E82EC01F005
:10004800000ECCEC03F00F0EC16E9494F28E9D82DC
:10005800F28CCA82EF0ECB6EBD86BD84780EBE6E62
:10006800BD9ABD98CA84FAEC02F035503610D8B45F
:1000780006D0000E366E000E356EFAEC02F080A047
:1000880015D01A0E0001766FF80EE82EFED7762FDF
:10009800FCD700F080B2FED73450D8A403D0180E95
:1000A800346E01D03406FAEC02F046D080A215D0A6
:1000B8001A0E0001766FF80EE82EFED7762FFCD7C1
:1000C80000F080B0FED73350D8A403D0070E336EAB
:1000D80001D03306FAEC02F02FD080A616D01A0E03
:1000E8000001766FF80EE82EFED7762FFCD700F0C9
:1000F80080B4FED7180E3418D8A403D0000E346E7E
:1001080001D0342AFAEC02F017D080A415D01A0EC8
:100118000001766FF80EE82EFED7762FFCD700F098
:1001280080B6FED7070E3318D8A403D0000E336E5E
:1001380001D0332AFAEC02F0020E0001776F040EA8
:100148000001766FBA0EE82EFED7762FFCD7772FF0
:10015800FAD700F08AD70600FACF1DF0FBCF1EF0C1
:10016800E9CF1FF0EACF20F0E1CF21F0E2CF22F073
:10017800D9CF23F0DACF24F0F3CF25F0F4CF26F04F
:10018800F6CF27F0F7CF28F0F8CF29F0F5CF2AF0EF
:100198009EA24DD0374A382AC80E37183810D8A42E
:1001A80045D0000E386E000E376E94A402D0949499
:1001B80001D094843150335CD8B002D0310632D0AB
:1001C8003350315CD8B002D0312A2CD03250345C54
:1001D800D8B002D0320626D03450325CD8B002D023
:1001E800322A20D09494070E0C6E000E0D6E7F0EEE
:1001F8000E6E000E38EC02F0030E156E2BC016F0D2
:100208002CC017F0030EBAEC02F0150E1C6E4B0E44
:100218001B6EBE0EE82EFED71B2EFCD71C2EFAD75F
:1002280000D0FF00000E366E010E356E9E922AC079
:10023800F5FF29C0F8FF28C0F7FF27C0F6FF26C042
:10024800F4FF25C0F3FF24C0DAFF23C0D9FF22C082
:10025800E2FF21C0E1FF20C0EAFF1FC0E9FF1EC086
:10026800FBFF1DC0FAFF3992110000016D6FE00E0F
:1002780000016C250001606F0001616BFF0E6123B6
:10028800000E0001636F050E626F6BEC03F060C037
:1002980070F061C071F000016B51050DF3CF6BF088
:1002A800000E0001736F000E726F000173BF08D05B
:1002B8000001735122E1050E0001725DD8B01200F1
:1002C800F90E00017025F66E7D0E7121F76E08009B
:1002D800F55000016E6F6F6B6BC065F06EC066F015
:1002E80000016D5101EC02F000016B2B0001704B15
:1002F800712B0001724B732BD8D712000001716F5C
:1003080071C072F00001736B29D06CC074F00001E9
:10031800756B0CD074C065F0000E0001666F0001AB
:10032800725101EC02F00001744B752B00016D5104
:1003380000016E6F6F6B0001745100016E5D00016A
:100348006F51800A0001706F00017551800A000129
:100358007059D8B0DFD70001724B732B00016B5175
:1003680000016E6F6F6B0001725100016E5D00013C
:100378006F51800A0001706F00017351800A0001FB
:100388007059D8A01200C1D7106EE00E0D24016E6E
:10039800026AFF0E0222000E046E050E036EDFECE9
:1003A80003F001C011F002C012F00C50050DF3CF9C
:1003B8000CF0000E146E000E136E14BE06D014500E
:1003C8001BE1050E135CD8B01200F90E1124F66E6D
:1003D8007D0E1220F76E0800F5500E6E0F6A0CC0E5
:1003E80006F00EC007F0105067EC02F00C2A114A14
:1003F800122A134A142AE1D712000001676F400E2F
:100408000001656105D0000E0001696F010E04D07E
:10041800000E0001696F020E686F68C06AF0000183
:100428006751B9EC03F00001655195EC02F0000149
:100438006A5134EC03F0000E936E00016A05D8B4DB
:100448008190020E00016A19D8B481928196818444
:1004580000F0818800F066C083FF000E956E00F002
:100468008198818081821200126E12C013F0146A82
:100478001CD00DC015F0166A09D015C006F0000E84
:10048800076E135067EC02F0154A162A0E500F6ECD
:10049800106A15500F5C1050800A116E1650800AB1
:1004A8001158D8B0EAD7134A142A0C500F6E106AA4
:1004B80013500F5C1050800A116E1450800A1158A6
:1004C800D8A01200D6D7086E400E066004D0000EE1
:1004D8000A6E010E03D0000E0A6E020E096E09C0E4
:1004E8000BF0085003EC04F0065017EC03F00B5027
:1004F800A1EC03F0000E936E0B04D8B48190020EA9
:100508000B18D8B481928196818400F0818800F01C
:1005180007C083FF000E956E00F08198818081826C
:1005280012000001646F400E000164610FD0010EDB
:100538000001626F000164514009DBEC02F0020E19
:100548000001626F400EDBEC02F01200010E0001A8
:10055800626F7F0EDBEC02F0020E0001626F000199
:100568006451C00F4009DBEC02F01200186E000E57
:100578001A6E000E196E11D0155019240C6E16C083
:10058800F6FF17C0F7FF0800F5CF0DF01850C8ECBC
:1005980001F0164A172A194A1A2A16C0F6FF17C078
:1005A800F7FF0800F5500A0AD8B41200E5D7000191
:1005B800636F0001625134EC03F0000E936E00018A
:1005C8006205D8B48190020E00016219D8B48192F4
:1005D8008196819400F0818800F063C083FF000E4B
:1005E800956E00F08198818081821200070E0001CB
:1005F8006B6F000E00016C6F7F0E00016D6F000EB7
:1006080082EC01F033C06BF02A0E00016C6F34509D
:1006180039EC01F031C06BF02B0E00016C6F3250D9
:1006280039EC01F01200056E400E05600CD0010E89
:10063800036E0550400986EC03F0020E036E400E6F
:1006480086EC03F01200010E036E7F0E86EC03F0B9
:10065800020E036E0550C00F400986EC03F012002D
:100668000001616F9568000E936E00016105D8B4B2
:100678008190020E00016119D8B48192818681941B
:1006880000F0818800F083CF60F08198000160BF9E
:10069800F8D7818081821200220EF66E080EF76E5E
:1006A800000EF86E00EE2BF010EE0AF00900F5CF00
:1006B800EEFFE550E150FAE1386A376A366A356A82
:1006C80039903992000EF86E000109EF00F0000130
:1006D800605100016203F3CF64F0F4CF65F00001CC
:1006E800605100016303F350000165270001615167
:1006F80000016203F3500001652764C060F065C023
:1007080061F01200046E0350A1EC03F0000E936E2A
:100718000304D8B48190020E0318D8B4819281964C
:10072800819400F0818800F004C083FF000E956E6C
:1007380000F08198818081821200026E9568000E17
:10074800936E0204D8B48190020E0218D8B4819234
:100758008186819400F0818800F083CF01F0819830
:1007680001BEF9D78180818212000001646F010EF9
:100778000001626F00016451B809DBEC02F0020E5F
:100788000001626F00016451B809DBEC02F012004D
:100798000001646F010E0001626F00016451C0091D
:1007A800DBEC02F0020E0001626F00016451C00927
:1007B800DBEC02F0120001500302F3CF05F0F4CF96
:1007C80006F001500402F350062602500302F350CB
:1007D800062605C001F006C002F01200818A010E4B
:1007E8000001626F3F0EDBEC02F0020E0001626F47
:1007F8003F0EDBEC02F0000ECCEC03F01200056EAD
:10080800010E036E0550B80986EC03F0020E036E64
:100818000550B80986EC03F01200ED7FFC7FFA7FE3
:0408280014030303AF
:107DF80000000000000000005F000000070007000E
:107E0800147F147F14242A7F2A12231308646236ED
:107E18004955225000050300003E7B3F7B3E004150
:107E2800221C003E7F4F4B4E7E3B7F3B7E005030F6
:107E38000000080808080800303000002010080476
:107E4800023E5149453E00427F4000426151494649
:107E58002141454B311814127F1027454545393CBF
:107E68004A494930017109050336494949360649E5
:107E780049291E0036360000005636000000081456
:107E88002241141414141441221408000201510947
:107E980006324979413E7E1111117E7F49494936A2
:107EA8003E414141227F4141221C7F494949417F4E
:107EB800090901013E414151327F0808087F00410C
:107EC8007F41002040413F017F081422417F40400C
:107ED80040407F0204027F7F0408107F3E414141F9
:107EE8003E7F090909063E4151215E7F091929464D
:107EF800464949493101017F01013F4040403F1F48
:107F08002040201F7F2018207F6314081463030477
:107F1800780403615149454300007F414102040848
:107F2800102041417F00000402010204404040400B
:107F380040000102040020545454787F48444438D7
:107F48003844444420384444487F3854545418082A
:107F58007E090102081454543C7F08040478004444
:107F68007D40002040443D00007F10284400417FB0
:107F780040007C041804787C08040478384444449D
:107F8800387C14141408081414187C7C0804040899
:107F98004854545420043F4440203C4040207C1C1A
:107FA8002040201C3C4030403C44281028440C50C1
:107FB80050503C4464544C44000836410000007F53
:107FC8000000004136080008082A1C08081C2A0876
:107FD800080800AA0008003838380000000000002F
:107FE800000000000047414D45204F5645522021D2
:077FF8000A002A002B000023
:020000040030CA
:0E000000210C3F1EFF8181FF0FC00FE00F405B
:00000001FF
